{
    "contractName": "Counter",
    "abi": [
        {
            "inputs": [],
            "stateMutability": "nonpayable",
            "type": "constructor"
        },
        {
            "inputs": [],
            "name": "getCount",
            "outputs": [
                {
                    "internalType": "uint256",
                    "name": "",
                    "type": "uint256"
                }
            ],
            "stateMutability": "view",
            "type": "function"
        },
        {
            "inputs": [],
            "name": "increment",
            "outputs": [],
            "stateMutability": "nonpayable",
            "type": "function"
        }
    ],
    "bytecode": "608080604052346016575f805560b29081601b8239f35b5f80fdfe60808060405260043610156011575f80fd5b5f3560e01c908163a87d942c146065575063d09de08a14602f575f80fd5b346061575f3660031901126061575f5460018101809111604d575f55005b634e487b7160e01b5f52601160045260245ffd5b5f80fd5b346061575f3660031901126061576020905f548152f3fea26469706673582212202c010e226123e707ad34c3295f2bff82d2328cde3b9f9483a6e25d2c20c02a2d64736f6c634300081c0033",
    "sourcePath": "/Volumes/Stacks/Playgrounds/hl-position-syncer/hl-evm-tests/Counter.sol",
    "compiler": {
        "name": "solc",
        "version": "0.8.28+commit.7893614a"
    },
    "functionHashes": {
        "getCount()": "a87d942c",
        "increment()": "d09de08a"
    },
    "gasEstimates": {
        "creation": {
            "codeDepositCost": "35600",
            "executionCost": "5098",
            "totalCost": "40698"
        },
        "external": {
            "getCount()": "2247",
            "increment()": "24383"
        }
    }
}